:020000040800F2
:100000000000022095340008FD100008FF100008D1
:10001000011100080311000805110008000000008C
:1000200000000000000000000000000007110008B0
:1000300009110008000000000B1100080D11000854
:10004000E5340008E5340008E5340008E53400082C
:10005000E5340008E5340008E5340008E53400081C
:10006000E5340008E5340008E534000815110008FF
:10007000E5340008E5340008E5340008E5340008FC
:10008000E5340008E5340008E5340008E5340008EC
:10009000E5340008E5340008E5340008E5340008DC
:1000A000E5340008E5340008E5340008E5340008CC
:1000B000E5340008E5340008E5340008E5340008BC
:1000C000E5340008E5340008E5340008E5340008AC
:1000D000E5340008E5340008E5340008E53400089C
:1000E00025110008E5340008E5340008E53400086F
:1000F000E5340008E5340008E5340008E53400087C
:10010000E5340008E5340008E5340008E53400086B
:10011000E5340008E5340008E53400083111000832
:10012000E5340008E5340008E5340008E53400084B
:10013000E5340008E5340008E5340008E53400083B
:10014000E5340008E5340008E5340008E53400082B
:10015000E5340008E5340008E5340008E53400081B
:10016000E5340008E5340008E5340008E53400080B
:10017000E5340008E5340008E5340008E5340008FB
:10018000E5340008E5340008E5340008E5340008EB
:10019000E534000800000000E5340008E5340008FC
:1001A000E5340008E5340008E5340008E5340008CB
:1001B000E5340008E5340008E5340008E5340008BB
:1001C000E5340008E5340008E5340008E5340008AB
:0801D000E5340008E5340008E5
:1001D8000348044B834202D0034B03B118477047CE
:1001E8000C0000200C000020000000000548064913
:1001F8000B1AD90F01EBA301491002D0034B03B12D
:10020800184770470C0000200C0000200000000078
:1002180010B5064C237843B9FFF7DAFF044B13B146
:100228000448AFF300800123237010BD0C000020A8
:1002380000000000E834000808B5044B1BB104496D
:100248000448AFF30080BDE80840CFE70000000095
:1002580010000020E834000870B50D4E0D4D761BD7
:10026800B61006D00024013455F8043B9847A6423E
:10027800F9D1094E094D761B03F032F9B61006D0B4
:100288000024013455F8043B9847A642F9D170BDC3
:100298004C3700084C370008503700084C37000826
:1002A800844641EA000313F003036DD1403A41D379
:1002B80051F8043B40F8043B51F8043B40F8043B38
:1002C80051F8043B40F8043B51F8043B40F8043B28
:1002D80051F8043B40F8043B51F8043B40F8043B18
:1002E80051F8043B40F8043B51F8043B40F8043B08
:1002F80051F8043B40F8043B51F8043B40F8043BF8
:1003080051F8043B40F8043B51F8043B40F8043BE7
:1003180051F8043B40F8043B51F8043B40F8043BD7
:1003280051F8043B40F8043B51F8043B40F8043BC7
:10033800403ABDD2303211D351F8043B40F8043B67
:1003480051F8043B40F8043B51F8043B40F8043BA7
:1003580051F8043B40F8043B103AEDD20C3205D377
:1003680051F8043B40F8043B043AF9D2043208D06F
:10037800D2071CBF11F8013B00F8013B01D30B88E1
:1003880003806046704700BF082A13D38B078DD0BF
:1003980010F003038AD0C3F10403D21ADB071CBF91
:1003A80011F8013B00F8013B80D331F8023B20F8FB
:1003B800023B7BE7043AD9D3013A11F8013B00F834
:1003C800013BF9D20B7803704B7843708B788370BC
:1003D80060467047F0B4860746D0541E002A3CD0C9
:1003E800CAB2034602E014F1FF3436D303F8012BF6
:1003F8009D07F8D1032C29D9CDB245EA05250F2C44
:1004080045EA054533D9A4F11006360903F120075A
:1004180007EB061703F1100242E9045542E90255B9
:100428001032BA42F8D1721C14F00C0F03EB02120E
:1004380004F00F0613D0331F23F0030304331344CF
:1004480042F8045B9342FBD106F003042CB1C9B215
:100458001C4403F8011B9C42FBD1F0BC7047344696
:100468001346002CF3D1F8E714460346C2E71A46B0
:100478002646E0E781F0004102E000BF83F0004338
:1004880030B54FEA41044FEA430594EA050F08BF27
:1004980090EA020F1FBF54EA000C55EA020C7FEAEB
:1004A800645C7FEA655C00F0E2804FEA5454D4EB68
:1004B8005555B8BF6D420CDD2C4480EA020281EA32
:1004C800030382EA000083EA010180EA020281EA6A
:1004D8000303362D88BF30BD11F0004F4FEA0131BC
:1004E8004FF4801C4CEA113102D0404261EB4101CB
:1004F80013F0004F4FEA03334CEA133302D0524251
:1005080063EB430394EA050F00F0A780A4F101040C
:10051800D5F1200E0DDB02FA0EFC22FA05F2801846
:1005280041F1000103FA0EF2801843FA05F359412C
:100538000EE0A5F120050EF1200E012A03FA0EFCAB
:1005480028BF4CF0020C43FA05F3C01851EBE371D5
:1005580001F0004507D54FF0000EDCF1000C7EEBF2
:1005680000006EEB0101B1F5801F1BD3B1F5001F30
:100578000CD349085FEA30004FEA3C0C04F101044F
:100588004FEA445212F5800F80F09A80BCF1004F78
:1005980008BF5FEA500C50F1000041EB045141EAFA
:1005A800050130BD5FEA4C0C404141EB0101013CC3
:1005B80028BFB1F5801FE9D291F0000F04BF0146B2
:1005C8000020B1FA81F308BF2033A3F10B03B3F184
:1005D80020020CDA0C3208DD02F1140CC2F10C0214
:1005E80001FA0CF021FA02F10CE002F11402D8BF72
:1005F800C2F1200C01FA02F120FA0CFCDCBF41EA3E
:100608000C019040E41AA2BF01EB0451294330BD0C
:100618006FEA04041F3C1CDA0C340EDC04F11404E9
:10062800C4F1200220FA04F001FA02F340EA0300C0
:1006380021FA04F345EA030130BDC4F10C04C4F106
:10064800200220FA02F001FA04F340EA03002946E6
:1006580030BD21FA04F0294630BD94F0000F83F430
:10066800801306BF81F480110134013D4EE77FEA13
:10067800645C18BF7FEA655C29D094EA050F08BF5F
:1006880090EA020F05D054EA000C04BF1946104640
:1006980030BD91EA030F1EBF0021002030BD5FEA84
:1006A800545C05D14000494128BF41F0004130BDAC
:1006B80014F580043CBF01F5801130BD01F0004500
:1006C80045F0FE4141F470014FF0000030BD7FEA73
:1006D800645C1ABF194610467FEA655C1CBF0B466E
:1006E800024650EA013406BF52EA033591EA030F85
:1006F80041F4002130BD00BF90F0000F04BF00217D
:10070800704730B54FF4806404F132044FF00005AF
:100718004FF0000150E700BF90F0000F04BF002128
:10072800704730B54FF4806404F1320410F000458E
:1007380048BF40424FF000013EE700BF42004FEA89
:10074800E2014FEA31014FEA02701FBF12F07F4306
:1007580093F07F4F81F06051704732F07F4208BFBD
:10076800704793F07F4F04BF41F40021704730B5C4
:100778004FF4607401F0004521F000411CE700BF10
:1007880050EA010208BF704730B54FF000050AE093
:1007980050EA010208BF704730B511F0004502D594
:1007A800404261EB41014FF4806404F132045FEA96
:1007B800915C3FF4D8AE4FF003025FEADC0C18BF3F
:1007C80003325FEADC0C18BF033202EBDC02C2F131
:1007D800200300FA03FC20FA02F001FA03FE40EAC3
:1007E8000E0021FA02F11444BDE600BF4FF0FF3CB1
:1007F80006E000BF4FF0010C02E000BF4FF0010C13
:100808004DF804CD4FEA410C7FEA6C5C4FEA430C8B
:1008180018BF7FEA6C5C1BD001B050EA410C0CBFDA
:1008280052EA430C91EA030F02BF90EA020F00203C
:10083800704710F1000F91EA030F58BF994208BFA3
:1008480090422CBFD8176FEAE37040F00100704760
:100858004FEA410C7FEA6C5C02D150EA013C07D1B7
:100868004FEA430C7FEA6C5CD6D152EA033CD3D002
:100878005DF8040B704700BF8446104662468C46FC
:100888001946634600E000BF01B5FFF7B7FF00282F
:1008980048BF10F1000F01BD4DF808EDFFF7F4FF58
:1008A8000CBF012000205DF808FB00BF4DF808EDE3
:1008B800FFF7EAFF34BF012000205DF808FB00BF06
:1008C8004DF808EDFFF7E0FF94BF012000205DF828
:1008D80008FB00BF4DF808EDFFF7CEFF94BF0120DD
:1008E80000205DF808FB00BF4DF808EDFFF7C4FFD6
:1008F80034BF012000205DF808FB00BF4FEA410229
:10090800B2F1E04324BFB3F5001CDCF1FE5C0DD965
:1009180001F0004C4FEAC0024CEA5070B2F1004FAF
:1009280040EB830008BF20F00100704711F0804FB2
:1009380021D113F13872BCBF01F00040704741F477
:1009480080114FEA5252C2F11802C2F1200C10FA7B
:100958000CF320FA02F018BF40F001004FEAC1235F
:100968004FEAD32303FA0CFC40EA0C0023FA02F303
:100978004FEA4303CCE77FEA625307D150EA0133D9
:100988001EBF4FF0FE4040F44000704701F00040A9
:1009980040F0FE4040F40000704700BF53B94AB928
:1009A800002908BF00281CBF4FF0FF314FF0FF306F
:1009B80000F06EB9ADF1080C6DE904CE00F006F850
:1009C800DDF804E0DDE9022304B070472DE9F047C3
:1009D800089D04468C46002B40F083808A421746C7
:1009E80047D9B2FA82F242B1C2F1200024FA00F0EB
:1009F8009140974040EA010C94404FEA1748230C75
:100A0800BCFBF8F61FFA87FE08FB16C143EA014350
:100A180006FB0EF1994209D9FB1806F1FF3080F068
:100A28001981994240F21681023E3B445B1AA4B2F6
:100A3800B3FBF8F008FB103344EA034400FB0EFE56
:100A4800A64509D93C1900F1FF3380F00581A64578
:100A580040F2028102383C4440EA0640A4EB0E040E
:100A680000261DB1D4400023C5E900433146BDE846
:100A7800F08702B9FFDEB2FA82F2002A50D1CB1B0E
:100A88004FEA174E1FFA87F80126B3FBFEFC210C2C
:100A98000EFB1C3341EA034108FB0CF38B4207D9D8
:100AA80079180CF1FF3002D28B4200F2E9808446BB
:100AB800C91AA3B2B1FBFEF00EFB101143EA0144C0
:100AC80008FB00F8A04507D93C1900F1FF3302D212
:100AD800A04500F2D9801846A4EB080440EA0C406F
:100AE800BFE78B4209D9002D00F0B1800026C5E987
:100AF800000130463146BDE8F087B3FA83F6002E90
:100B08004AD18B4202D3824200F2B880841A61EB48
:100B1800030101208C46002DA8D0C5E9004CA5E7AB
:100B2800C2F1200320FA03F6974001FA02F04FEAD7
:100B3800174ED9403043030CB1FBFEF61FFA87F875
:100B48000EFB161143EA014306FB08F1994204FA29
:100B580002F409D9FB1806F1FF3C80F08D80994218
:100B680040F28A80023E3B445B1A81B2B3FBFEF03E
:100B78000EFB103341EA034100FB08F38B4207D90F
:100B8800791800F1FF3C73D28B4271D9023839448D
:100B9800CB1A40EA064678E7C6F1200C03FA06F4B9
:100BA80022FA0CF31C4320FA0CF701FA06F34FEA79
:100BB800144E21FA0CF11F433B0CB1FBFEF91FFA4E
:100BC80084F80EFB191143EA014109FB08FA8A452A
:100BD80002FA06F200FA06F308D9611809F1FF30A3
:100BE80048D28A4546D9A9F102092144A1EB0A0154
:100BF800BFB2B1FBFEF00EFB101147EA014700FB44
:100C080008F8B84507D9E71900F1FF312ED2B845E1
:100C18002CD90238274440EA0940A7EB0807A0FB73
:100C280002894F45C64649461AD317D05DB1B3EB82
:100C38000E0267EB010707FA0CFCF2404CEA0202CD
:100C4800F740C5E9002700263146BDE8F0872E4663
:100C580028460BE70646E9E61846FDE64345E5D291
:100C6800B8EB020E69EB04010138DFE70846D2E76A
:100C780060468DE78146B9E7664675E730464AE73C
:100C8800ACF1020C394413E702383C4424E700BFB6
:100C9800704700BF30B5A9B0382200211AA8FFF765
:100CA80099FB0024159416941794189419945422B7
:100CB80021466846FFF78EFB204601F0D7FC01234A
:100CC8001A934FF480331B93022321930325229513
:100CD80006222392552224922593269327931AA815
:100CE80000F0BAFD0F2315931695179418941994CC
:100CF800042115A801F068F820230093069468469B
:100D080001F088F929B030BD30B5ADF5037D00F0AC
:100D180041FDFFF7BFFF00F05BF802F095FB00F024
:100D2800F7F800F081F902F043FB0025002400E009
:100D38000135B5F5806F15D22046FFF7FFFC1FA3DC
:100D4800D3E90023FFF79CFBFFF7D8FD0446FFF724
:100D5800F5FC1CA3D3E90023FFF7C6FD0028E7D064
:100D68000024E5E74FF40072114902A8FFF798FA4A
:100D7800104802F035F900210091802302AA0E489C
:100D880000F0EEFA002400E001341F2CFADC002207
:100D9800002340F2A3600021994208BF9042F3D398
:100DA80000BF013243F10003F3E700BFAFF3008057
:100DB800003500082C01002028000020B7EEE6A925
:100DC8000EB9693F1F85EB51B81E194070470000E6
:100DD80070B58CB000240794089409940A940B9475
:100DE800454BDA6C42F00402DA64DA6C02F0040271
:100DF8000192019ADA6C42F02002DA64DA6C02F0AD
:100E080020020292029ADA6C42F04002DA64DA6C4A
:100E180002F040020392039ADA6C42F00102DA64AB
:100E2800DA6C02F001020492049ADA6C42F00202CF
:100E3800DA64DA6C02F002020592059ADA6C42F082
:100E48000802DA64DB6C03F008030693069B22466B
:100E580020214FF0904000F05DFA4FF400530793C3
:100E6800264B08930994264E07A9304600F080F9CE
:100E78004FF48063079303250895099407A921482F
:100E880000F076F941F6FF7307930895099407A9CE
:100E9800304600F06DF949F6937307930895099465
:100EA80007A94FF0904000F063F92023079301232E
:100EB800089309940A9407A94FF0904000F058F954
:100EC8004FF6F77307930895099407A90E4800F0A1
:100ED8004FF9042307930895099407A90B4800F0D4
:100EE80047F922462146282001F060FC282001F01D
:100EF80091FC0CB070BD00BF001002400000111042
:100F0800000800480018004800040048000C004889
:100F180000B58DB0302200216846FFF75BFA114812
:100F2800114B036000F00AFAB0B9022300930022C3
:100F38008DF804208DF80520029212230393049261
:100F480005920423069307926946064800F0E0FAE2
:100F580028B90DB05DF804FBFFF738FFE5E7FFF7A8
:100F680035FFF6E728000020000C005030B589B0A6
:100F78000023039304930593069307930268274B72
:100F88009A4201D009B030BD044603F1704303F51D
:100F98000133DA6C42F40032DA64DA6C02F40032BB
:100FA8000192019ADA6C42F00102DA64DB6C03F018
:100FB80001030293029B4023039303230493002518
:100FC800059503A94FF0904000F0D2F81448154B4E
:100FD80003602923436010238360C5608023036175
:100FE8004FF4007343614FF4006383612023C361AE
:100FF8004FF40053036201F021FA58B9084BA3607B
:101008009C6200221146372001F0D0FB372001F006
:1010180001FCB7E7FFF7DAFEF0E700BF000C00506D
:101028003C0000200800024008B51648164B036033
:101038004FF4E133436000238360C36003610C22F3
:10104800426183610362836201F0C6FE70B90021C8
:101058000C4801F04CFF60B900210A4801F06CFF10
:1010680050B9084801F024FF48B908BDFFF7AEFEA3
:10107800EDE7FFF7ABFEEFE7FFF7A8FEF1E7FFF7B5
:10108800A5FEF2E79C0000200080004000B589B072
:101098000023039304930593069307930268144B64
:1010A8009A4202D009B05DF804FB03F5C833DA6D43
:1010B80042F00102DA65DA6D02F001020192019A4A
:1010C800DA6C42F00102DA64DB6C03F0010302938C
:1010D800029B0C230393022204920022059206929B
:1010E80007930DEB03014FF0904000F041F8D9E76A
:1010F800008000407047FEE7FEE7FEE7FEE7704726
:101108007047704708B500F055FB08BD08B50248A0
:1011180001F04AFA08BD00BF3C00002008B54FF4B2
:10112800005000F0FDF808BD08B5024800F0B7F916
:1011380008BD00BF2800002000B583B00B4B1A6E15
:1011480042F001021A661A6E02F001020092009A39
:101158009A6D42F080529A659B6D03F0805301931B
:10116800019B01F009FB03B05DF804FB001002408D
:10117800F0B583B0002336E0052400E00024B44035
:101188003C4302355F4E46F825405F4C2568D44302
:1011980025EA02064F6817F4803F01D042EA0506A7
:1011A800594D2E606D6804EA05064F6817F4003F34
:1011B80001D042EA0506544D6E60AD6804EA0506A2
:1011C8004F6817F4801F01D042EA05064E4DAE6005
:1011D800ED682C404E6816F4001F01D042EA050461
:1011E800494AD46001330A6832FA03F400F0878070
:1011F80001249C402240F5D04D686E1E012E03D973
:10120800112D01D0122D12D186685F000325BD4033
:1012180026EA0506CD68BD4035438560466826EA5E
:1012280004064D68C5F300149C4034434460C76805
:101238005E000325B540EC4327EA05078D68B540F5
:101248003D43C5604D68022D01D0122D13D1DF0832
:10125800083750F827E003F007054FEA850C0F25FB
:1012680005FA0CF52EEA050E0D6905FA0CF545EAA6
:101278000E0540F82750056825404C6804F0030423
:10128800B4402C4304604C6814F0805FAAD01F4C13
:10129800256E45F001052566246E04F001040194CD
:1012A800019C9D08AE1C174C54F8267003F00304EB
:1012B800A6000F24B44027EA0407B0F1904F3FF48A
:1012C8005DAF134CA04212D004F58064A04210D048
:1012D80004F58064A0420ED004F58064A0420CD0CE
:1012E80004F58064A0423FF447AF062447E7012491
:1012F80045E7022443E7032441E704243FE703B01A
:10130800F0BD00BF00000140000401400010024091
:10131800000400480AB181617047816270477047D4
:1013280008B5054B5B69034200D108BD024B586103
:10133800FFF7F5FFF9E700BF0004014070B110B5F1
:101348000446037933B1022323710020206101236D
:10135800237110BD4371FFF709FEF4E701207047C0
:1013680070B504460D461146049A407901286BD0A1
:101378000120607102202071002D31D1A068334E08
:10138800C662A068324E0663A068324E466326687D
:10139800306840F480503060042A1BD0082A1CD0E2
:1013A800AAB12A46002D39D12668306840F4005089
:1013B8003060A06801F0AEF8064600236371002E85
:1013C80036D0236943F004032361304670BD226898
:1013D8000832E7E722680C32E4E722681032E1E7D6
:1013E800E0681D4EC662E0681C4E0663E0681C4E4D
:1013F80046632668306840F080503060042A07D081
:10140800082A08D00AB10022CCE722681432C9E7BA
:1014180022681832C6E722681C32C3E7266830689B
:1014280040F000503060E06801F074F80646C4E708
:101438002268136805F01005012000FA05F51D4320
:10144800156000F0C9F9C0E70226BEE76F1400086E
:10145800811400088D1400081317000825170008C8
:1014680031170008704710B5846A2046FFF7FAFF65
:101478000123237110BD704708B5806AFFF7FBFF91
:1014880008BD704710B5846A236943F004032361DB
:101498002046FFF7F6FF0123237110BD704710B5F2
:1014A800044603681A6812F4005F03D05A6B12F4FA
:1014B800005F09D123681A6812F0005F03D05A6BE5
:1014C80012F0005F11D110BD04220271026942F0CE
:1014D800010202614FF400525A630268136823F450
:1014E80080531360FFF7DAFFE4E7042222712269D0
:1014F80042F0020222614FF000525A6322681368D8
:1015080023F080531360204600F01AF9DBE700004F
:101518004379012B00F0F2802DE9F04104460E4694
:10152800154601234371022303718B68042B18D0DD
:10153800F369012B5FD02368DF6B05F010050723E3
:10154800AB4027EA0307B36913F0010F60D113F02A
:10155800020840F0BC807369002B5BD14FF0010892
:1015680058E072B123685B6B002B25DA00F02EF986
:101578000128F7D9236943F0080323610320207168
:10158800A3E000F023F9074623685B6B13F4004FD0
:101598000BD000F01BF9C01B0128F5D9236943F0D3
:1015A80008032361032020718FE0012000F014F963
:1015B8002368726A1A6405E0012000F00DF92368B7
:1015C800726A5A642068826C05F0100140F2FF3399
:1015D8008B4022EA0302B36A8B401A438264206874
:1015E800C36CFF228A4023EA0203F26A02FA01F17D
:1015F8000B43C3649CE721688A6B05F010001F2326
:10160800834022EA0302336A834013438B6392E7E1
:101618004FF00008B3687269134343EA08034FF4B4
:101628008072AA4027EA02073279012A52D04FF085
:10163800000848EA03034FF40072AA4027EA0207A9
:101648007279012A49D04FF0000848EA030827F4C4
:1016580040473368022B43D01F4308FA05F848EA8D
:1016680007072368DF6321680B684FF48042AA40AC
:1016780023EA02030B6021680B6840F6FE72AA4059
:1016880023EA0202F368AB4013430B6021680B683E
:10169800C022AA4023EA02030B60F268C2F3830364
:1016A80032699208120202F470621A432068036ECB
:1016B80040F60F71A94023EA010302FA05F51D431C
:1016C80005660123237100206071BDE8F0814FF0A9
:1016D80001089FE74FF48078ABE74FF40078B4E750
:1016E80000F06EFC064B984202D947F40047B4E775
:1016F800044B9842B1D947F48047AEE702207047BF
:101708000068890900B4C404704710B5846A20468B
:10171800FFF7FAFF0123237110BD704708B5806AEF
:10172800FFF7FBFF08BD704710B5846A236943F0D3
:10173800040323612046FFF7F6FF0123237110BD40
:1017480070470000104B1B680BB90120704710B59B
:1017580004464FF47A70B0FBF3F30C4A1068B0FB00
:10176800F3F001F065F868B90F2C01D901200AE0FF
:10177800002221464FF0FF3001F018F8044B1C609E
:10178800002000E0012010BD00000020080000201B
:101798000400002010B5032000F0F6FF0020FFF73A
:1017A800D1FF10B10124204610BD0446FFF7C4FC48
:1017B800F9E70000034A1368034909680B441360FA
:1017C800704700BF2801002000000020014B186866
:1017D800704700BF2801002038B50446FFF7F6FF20
:1017E8000546B4F1FF3F02D0044B1B681C44FFF7C9
:1017F800EDFF401BA042FAD338BD00BF0000002017
:10180800124AD36803F00303D068C0F30310013011
:10181800032B11D00E4BB3FBF0F30C4AD068C0F386
:10182800062000FB03F0094BDB68C3F34163013377
:101838005B00B0FBF3F07047064BB3FBF0F3D068E6
:10184800C0F3062000FB03F0EDE700BF00100240E4
:101858000024F40000366E01002800F0548270B5B0
:1018680082B00446036813F0010F37D0B44A936876
:1018780003F00C03D26802F003020C2B23D0082BD0
:1018880023D06368B3F5803F4ED0B3F5A02F51D075
:10189800AB4B1A6822F480321A601A6822F480224C
:1018A8001A606368002B52D0FFF790FF0546A44BDF
:1018B8001B6813F4003F11D1FFF788FF401B642811
:1018C800F5D9032028E2032AD9D19D4B1B6813F4CC
:1018D800003F03D06368002B00F01782236813F0E1
:1018E800020F5DD0964A936803F00C03D26802F0A9
:1018F80003020C2B3AD0042B3AD0E368002B75D0A6
:101908008F4A136843F480731360FFF75FFF05463F
:101918008B4B1B6813F4806F5FD1FFF757FF401B99
:101928000228F5D90320F7E1854A136843F4803388
:101938001360B6E703F18043A3F53C331A6842F419
:1019480080221A601A6842F480321A60A9E7FFF709
:101958003DFF05467A4B1B6813F4003FBED0FFF7E6
:1019680035FF401B6428F5D90320D5E1022AC2D1EE
:10197800734B1B6813F4806F03D0E368002B00F0EF
:10198800C6816F4A536823F0FE43216943EA016325
:1019980053606C4B1868FFF7D5FE002840F0B981FA
:1019A800236813F0080F4CD063699BB3644AD2F8DC
:1019B800943043F00103C2F89430FFF707FF05465F
:1019C8005F4BD3F8943013F0020F3AD1FFF7FEFEC5
:1019D800401B0228F4D903209EE1594A536823F09A
:1019E800FE43216943EA01635360D9E7544A136807
:1019F80023F480731360FFF7E9FE0546504B1B681C
:101A080013F4806FCCD0FFF7E1FE401B0228F5D914
:101A1800032081E14A4AD2F8943023F00103C2F846
:101A28009430FFF7D3FE0546454BD3F8943013F0B6
:101A3800020F06D0FFF7CAFE401B0228F4D9032084
:101A48006AE1236813F0040F00F081803C4B9B6D22
:101A580013F0805F36D13A4B9A6D42F080529A6506
:101A68009B6D03F080530193019B0125364B1B6846
:101A780013F4807F28D0A368012B39D0052B3FD0E1
:101A88002F4BD3F8902022F00102C3F89020D3F80E
:101A9800902022F00402C3F89020A368002B3DD0C8
:101AA800FFF794FE0646264BD3F8903013F0020F4A
:101AB8004CD1FFF78BFE801B41F288339842F2D954
:101AC800032029E10025D1E71F4A136843F48073F6
:101AD8001360FFF77BFE06461B4B1B6813F4807FE1
:101AE800C9D1FFF773FE801B0228F5D9032013E143
:101AF800134AD2F8903043F00103C2F89030CCE793
:101B08000F4BD3F8902042F00402C3F89020D3F88A
:101B1800902042F00102C3F89020BEE7FFF756FE7E
:101B28000646074BD3F8903013F0020F0ED0FFF79C
:101B38004DFE801B41F288339842F2D90320EBE036
:101B4800001002400400002000700040E5B923683E
:101B580013F0200F35D0A369E3B1774AD2F8983053
:101B680043F00103C2F89830FFF730FE0546724B88
:101B7800D3F8983013F0020F23D1FFF727FE401B4C
:101B88000228F4D90320C7E06B4A936D23F08053F1
:101B98009365DCE7684AD2F8983023F00103C2F86D
:101BA8009830FFF713FE0546634BD3F8983013F0CF
:101BB800020F06D0FFF70AFE401B0228F4D90320C3
:101BC800AAE0E369002B00F0A6805B4A926802F065
:101BD8000C020C2A69D0022B1DD0574B1A6822F030
:101BE80080721A60DA6822F00302DA60DA6822F09A
:101BF800887222F48032DA60FFF7E8FD04464E4B23
:101C08001B6813F0007F4ED0FFF7E0FD001B022891
:101C1800F5D9032080E0484A136823F080731360E5
:101C2800FFF7D4FD0546444B1B6813F0007F06D030
:101C3800FFF7CCFD401B0228F5D903206CE03E4A93
:101C4800D3683E491940236A606A013843EA0013A1
:101C5800A06A43EA0023206B4008013843EA405356
:101C6800606B4008013843EA4063E06A43EAC063B6
:101C78000B43D360136843F080731360D36843F059
:101C88008073D360FFF7A2FD04462B4B1B6813F04B
:101C9800007F06D1FFF79AFD001B0228F5D9032023
:101CA8003AE0002038E0002036E0012B36D0224B05
:101CB800DB6803F00301226A914231D103F0F0029C
:101CC800616A0139B2EB011F2CD103F4FE42A16A0B
:101CD800B2EB012F28D103F07842E16AB2EBC16F71
:101CE80024D103F4C001226B5208013AB1EB425FE0
:101CF8001ED103F0C063626B5208013AB3EB426F26
:101D080018D1002008E001207047012004E00120DC
:101D180002E0012000E0002002B070BD0120FBE7D6
:101D28000120F9E70120F7E70120F5E70120F3E7B3
:101D38000120F1E70120EFE7001002400C809F012D
:101D48001E4B9B6803F00C03042B32D01B4B9B6883
:101D580003F00C03082B2ED0184B9B6803F00C03E0
:101D68000C2B01D000207047144AD36803F00303FA
:101D7800D068C0F303100130032B11D0104BB3FB14
:101D8800F0F30E4AD068C0F3062000FB03F00B4BBB
:101D9800DB68C3F3416301335B00B0FBF3F07047CA
:101DA800084BB3FBF0F3D068C0F3062000FB03F048
:101DB800EDE7034870470348704700BF0010024032
:101DC8000024F40000366E01002800F0E680F8B523
:101DD8000C460546744B1B6803F00F038B420BD26D
:101DE800714A136823F00F030B431360136803F061
:101DF8000F038B4240F0D3802E6816F001065FD0A7
:101E08006B68032B15D0022B33D0684B1B6813F477
:101E1800806F00F0C680FFF793FF654B984233D977
:101E2800624A936823F0F00343F0800393608026AE
:101E38002BE05E4B1B6813F0007F01D101208BE083
:101E4800FFF7DEFC5A4B98421AD9584B9B6813F09F
:101E5800F00F05D02E6816F0020616D0AB688BB9C5
:101E6800524A936823F0F00343F08003936080267E
:101E78000BE04E4B1B6813F4003FCCD101206BE004
:101E8800002602E0002600E00026484A936823F076
:101E9800030369680B439360FFF798FC0746434BBD
:101EA8009B6803F00C036A68B3EB820F08D0FFF756
:101EB8008DFCC01B41F288339842F0D903204BE0D7
:101EC8002B6813F0020F48D013F0040F04D0374AE0
:101ED800936843F4E06393602B6813F0080F06D00F
:101EE800324A936823F47C5343F4E06393602F4AA7
:101EF800936823F0F003A9680B4393602A4B1B688F
:101F080003F00F03A34230D82B6813F0040F06D058
:101F1800264A936823F4E063E9680B4393602B68CF
:101F280013F0080F07D0214A936823F460532969F6
:101F380043EAC1039360FFF703FF1C4B9B68C3F39D
:101F480003131C4AD35C03F01F03D8401A4B1860D4
:101F58001A4B1868FFF7F6FBF8BD802ECED1134A4E
:101F6800936823F0F0039360C8E70F4A136823F0DF
:101F78000F0323431360FFF729FC06460A4B1B682F
:101F880003F00F03A342BFD0FFF720FC801B41F2F0
:101F980088339842F2D90320DEE7012070470120F8
:101FA800DAE70120D8E700BF002002400010024015
:101FB80000B4C4042C3700080800002004000020E6
:101FC800014B1868704700BF0800002008B5FFF7EC
:101FD800F7FF054B9B68C3F30223044AD35C03F065
:101FE8001F03D84008BD00BF001002403C3700085E
:101FF80008B5FFF7E5FF054B9B68C3F3C223044A06
:10200800D35C03F01F03D84008BD00BF0010024096
:102018003C370008F0B583B00446036813F4002F7A
:102028006ED0354B9B6D13F0805F1ED1324B9A6D8D
:1020380042F080529A659B6D03F080530193019B97
:1020480001262E4A136843F480731360FFF7BEFB22
:1020580005462A4B1B6813F4807F08D1FFF7B6FBAF
:10206800401B0228F5D9032502E00026E9E70025F0
:1020780045BB214BD3F8903013F4407315D0226D33
:102088009A4212D01C4AD2F8903023F44073D2F806
:10209800901041F48031C2F89010D2F8901021F4D9
:1020A8008031C2F89010C2F8903013F0010F10D1AF
:1020B80045B9114AD2F8903023F44073216D0B438F
:1020C800C2F89030EEB10C4A936D23F080539365BB
:1020D80017E0FFF77BFB0746074BD3F8903013F068
:1020E800020FE5D1FFF772FBC01B41F2883398421B
:1020F800F2D90325DCE700BF001002400070004061
:102108000025236813F0010F08D09F4AD2F88830C1
:1021180023F0030361680B43C2F88830236813F087
:10212800020F08D0984AD2F8883023F00C03A1682F
:102138000B43C2F88830236813F0040F08D0924A82
:10214800D2F8883023F03003E1680B43C2F88830B6
:10215800236813F0080F08D08B4AD2F8883023F090
:10216800C00321690B43C2F88830236813F0100FAD
:1021780008D0854AD2F8883023F4407361690B434C
:10218800C2F88830236813F0200F08D07E4AD2F8AE
:10219800883023F44063A1690B43C2F88830236870
:1021A80013F0400F08D0784AD2F8883023F440530F
:1021B800E1690B43C2F88830236813F0800F08D018
:1021C800714AD2F8883023F44043216A0B43C2F89D
:1021D8008830236813F4807F08D06B4AD2F888309F
:1021E80023F44033616A0B43C2F88830236813F440
:1021F800003F08D0644AD2F89C3023F00303A16A58
:102208000B43C2F89C30236813F4007F08D05E4A61
:10221800D2F8883023F44023E16A0B43C2F88830AF
:10222800236813F4806F0CD0574AD2F8883023F40F
:102238004013216B0B43C2F88830236BB3F5801F22
:1022480079D0236813F4006F0CD04F4AD2F8883045
:1022580023F44003616B0B43C2F88830636BB3F51A
:10226800800F6DD0236813F4805F0CD0464AD2F8F3
:10227800883023F04073A16B0B43C2F88830A36BFE
:10228800B3F1807F61D0236813F4005F0CD03E4A1D
:10229800D2F8883023F04063E16B0B43C2F88830F2
:1022A800E36BB3F1006F55D0236813F4804F0CD063
:1022B800354AD2F8883023F04063216C0B43C2F8CA
:1022C8008830236CB3F1006F49D0236813F4004FB2
:1022D8000CD02D4AD2F8883023F04053616C0B4360
:1022E800C2F88830636CB3F1805F3DD0236813F483
:1022F800803F0CD0244AD2F8883023F04043A16CA8
:102308000B43C2F88830A36CB3F1804F31D02368F7
:1023180013F4802F0CD01C4AD2F89C3023F44013BD
:10232800E16C0B43C2F89C30E36CB3F5001F25D079
:10233800284603B0F0BDD36843F48013D36080E728
:10234800D36843F48013D3608CE7D36843F48013D5
:10235800D36098E7D36843F48013D360A4E7D368C5
:1023680043F48013D360B0E7D36843F48033D36079
:10237800BCE7D36843F48033D360C8E7D36843F439
:102388008013D360D4E700BF0010024070B4C46C5F
:10239800056D6560446D14B1846DC56D6560446CF0
:1023A80004F01F05066C0124AC4074600468636087
:1023B8008368102B05D0036899600368DA6070BCE5
:1023C800704703689A600368D960F8E703680C4AA5
:1023D800934213D80B49DBB2083B0B4AA2FB0323F9
:1023E800426C22F003020A448264084AC264C3F3BE
:1023F8000413012202FA03F3036570470449EAE76C
:102408000704024000080240CDCCCCCC8008024032
:10241800200802400379074A1A4492004265064A96
:102428008265013B03F01F03012202FA03F3C3652F
:10243800704700BF3F8200104009024000285BD06F
:1024480010B5044601682D4B99423DD82C4B0B44DE
:102458002C4AA2FB03231B099B0043642A4B0364F9
:10246800022384F825300A6822F4FF4222F0700221
:10247800A368E06803432069034360690343A069D4
:102488000343E0690343206A034313430B60204678
:10249800FFF79CFFA368B3F5804F20D0A36C227987
:1024A8001A60E36C226D5A606368013B032B19D9EB
:1024B80000236365A365E3650020E063012384F8D6
:1024C800253084F8240010BD104B0B440D4AA2FBA4
:1024D80003231B099B0043640D4B0364C0E70023DF
:1024E8006360DBE72046FFF795FF636D00221A6003
:1024F800A36DE26D5A60DFE70120704707040240D0
:10250800F8FFFDBFCDCCCCCC00000240F8FBFDBFEE
:102518000004024038B5044690F82400012841D050
:10252800012084F8240094F82500C0B2012804D0C2
:10253800002384F82430022038BD022084F82500C6
:102548000020E0632568286820F001002860204604
:10255800FFF71CFF236BD3B12268136843F00E0307
:102568001360A36C1A6812F4803F03D01A6842F40F
:1025780080721A60636D1BB11A6842F480721A6027
:102588002268136843F0010313600020D4E722682F
:10259800136823F0040313602268136843F00A03E6
:1025A8001360DEE70220C7E738B5036C19680468D2
:1025B8002568436C03F01F0304229A400A4215D091
:1025C80015F0040F12D0236813F0200F03D12368ED
:1025D80023F004032360436C03F01F02016C0423FF
:1025E80093404B60036B03B1984738BD02229A4071
:1025F8000A421CD015F0020F19D0236813F0200FDF
:1026080006D1236823F00A032360012380F82530CC
:10261800436C03F01F02016C022393404B600023BC
:1026280080F82430C36A002BDFD09847DDE7082202
:1026380002FA03F30B42D8D015F0080FD5D023685F
:1026480023F00E032360436C03F01F03016C012287
:1026580002FA03F34B60C26380F82520002380F858
:102668002430436B002BC0D09847BEE7002836D1F2
:102678003E4B1B6803F4C063B3F5806F08D03B4A38
:10268800D2F8803023F48073C2F88030002070477D
:10269800364AD2F8803023F48073C2F88030136849
:1026A80023F4C06343F400731360314B1A68322378
:1026B80003FB02F32F4AA2FB03239B0C013300E028
:1026C800013B2A4A526912F4806F01D0002BF7D1DE
:1026D800264B5B6913F4806F44D100207047B0F536
:1026E800007F08D0214A136823F4C06343F4806351
:1026F8001360002070471D4B1B6803F4C063B3F5DB
:10270800806F08D0194AD2F8803043F48073C2F839
:10271800803000207047154AD2F8803043F4807327
:10272800C2F88030136823F4C06343F40073136065
:102738000F4B1A68322303FB02F30E4AA2FB032352
:102748009B0C013300E0013B084A526912F4806F88
:1027580001D0002BF7D1054B5B6913F4806F03D1CF
:102768000020704703207047032070470070004026
:102778000800002083DE1B43024A936843F4804329
:102788009360704700700040074AD36823F4E06301
:102798001B041B0C000200F4E060034343F0BF631A
:1027A80043F40033D360704700ED00E030B4174BBA
:1027B800DB68C3F30223C3F10704042C28BF0424F5
:1027C8001D1D062D18D9033B4FF0FF3505FA04F4FB
:1027D80021EA0401994005FA03F322EA03031943A5
:1027E80000280BDB0901C9B200F1604000F5614027
:1027F80080F8001330BC70470023E5E700F00F00B5
:102808000901C9B2024B1954F4E700BF00ED00E01A
:1028180014ED00E0002807DB00F01F024009012347
:102828009340024A42F82030704700BF00E100E0C0
:102838000138B0F1807F0AD2064B5860064AF02171
:1028480082F823100020986007221A607047012040
:10285800704700BF10E000E000ED00E02DE9F04116
:102868000446016883680269134342691343C269D5
:102878001343426E134308689C4A02401A430A6095
:102888002268536823F44053E1680B435360A169FD
:102898002268974B9A4201D0236A1943936823F020
:1028A8006E4323F430630B4393602268D36A23F0AA
:1028B8000F03616A0B43D36222688E4B9A4210D091
:1028C8008D4B9A4221D08D4B9A4237D08C4B9A42ED
:1028D8005CD08C4B9A426BD0854B9A427DD01023AA
:1028E8003AE003F55843D3F8883003F00303032B89
:1028F80009D8DFE803F00204870601232CE004234B
:102908002AE0082328E0102326E003F5E633D3F86D
:10291800883003F00C030C2B0ED8DFE803F0070D0A
:102928000D0D090D0D0D750D0D0D0B00002313E098
:10293800042311E008230FE010230DE003F5E4332E
:10294800D3F8883003F03003202B5FD01AD8002B3F
:102958005ED0102B5ED1042365498A4276D0E069A7
:10296800B0F5004F00F0B680082B00F23781DFE8A1
:1029780013F0F9001C01F70035011F01350135017D
:1029880035012201302B47D10823E5E703F5E2336F
:10299800D3F8883003F0C003802B3FD004D8FBB3B2
:1029A800402B3FD10423D7E7C02B3DD10823D3E7E1
:1029B80003F5E033D3F8883003F44073B3F5007FB0
:1029C80034D005D8A3B3B3F5807F33D10423C3E74C
:1029D800B3F5407F30D10823BEE703F5C833D3F8F9
:1029E800883003F44063B3F5006F27D005D83BB3B4
:1029F800B3F5806F26D10423AEE7B3F5406F23D13A
:102A08000823A9E70223A7E70223A5E70223A3E7F0
:102A18000023A1E710239FE710239DE702239BE7EC
:102A2800002399E7102397E7102395E7022393E7FC
:102A3800002391E710238FE710238DE702238BE70C
:102A4800002389E7102387E7102385E7082B00F286
:102A5800B580DFE803F008B33DB33AB3B3B305007C
:102A68004FF4004004E0FFF7B1FA002800F0A88016
:102A7800626A254B33F81220B0FBF2F3656805EB68
:102A88004501994200F29E80B3EB053F00F29C801D
:102A98004FF0000892B200234146FDF77FFF0F0276
:102AA80047EA1067060268082A464346301847F185
:102AB8000001FDF773FFA0F54072144B9A4200F233
:102AC80085802368D860404665E0FFF739F9CCE790
:102AD8000F48CDE7082B7BD8DFE803F01C3C057ACC
:102AE8003F7A7A7A20000A4818E000BFF369FFCFDE
:102AF8000080004000380140004400400048004089
:102B0800004C00400050004008370008FFFC0F0050
:102B18000024F400FFF75AFA00285BD0626A324BAF
:102B280033F81230B0FBF3F06268530803EB40004F
:102B3800B0FBF2F080B2A0F110024FF6EF739A42A8
:102B48004AD820F00F03C0F3420018432368D86026
:102B5800002020E0FFF74CFADEE7FFF7F1F8DBE7AB
:102B6800224803E0FFF732FA002839D0626A1E4B88
:102B780033F81230B0FBF3F0636800EB5300B0FB9E
:102B8800F3F080B2A0F110024FF6EF739A4229D801
:102B98002368D86000200123A4F86A30A4F86830BC
:102BA8000023E3662367BDE8F081FFF721FADBE73E
:102BB800FFF7C6F8D8E74FF40040D7E70120EAE767
:102BC8000020E8E70120E6E70120E4E70120E2E74A
:102BD8000120E0E70020DEE70120DCE70120DAE75A
:102BE8000020D8E70120D6E7083700080024F400C1
:102BF800836A13F0010F06D00268536823F4003388
:102C0800C16A0B435360836A13F0020F06D002684F
:102C1800536823F48033016B0B435360836A13F0CA
:102C2800040F06D00268536823F48023416B0B43DA
:102C38005360836A13F0080F06D00268536823F4C0
:102C48000043816B0B435360836A13F0100F06D067
:102C58000268936823F48053C16B0B439360836AC3
:102C680013F0200F06D00268936823F40053016C18
:102C78000B439360836A13F0400F0AD002685368CD
:102C880023F48013416C0B435360436CB3F5801FEE
:102C98000BD0836A13F0800F06D00268536823F4C0
:102CA8000023C16C0B43536070470268536823F4D8
:102CB800C003816C0B435360EBE72DE9F8430546ED
:102CC8000F4616469946DDF820802C68E46937EAF5
:102CD80004030CBF01240024B44241D1B8F1FF3FE2
:102CE800F3D0FEF773FDA0EB0900404524D8B8F1F6
:102CF800000F21D02B681A6812F0040FE5D0DA69AA
:102D080012F4006FE1D04FF400621A622A68136867
:102D180023F4D07313602A68936823F00103936047
:102D28002023C5F88030C5F88430C5F888300023E2
:102D380085F87C30032014E02A68136823F4D073E4
:102D480013602A68936823F0010393602023C5F871
:102D58008030C5F88430002385F87C30032000E0FB
:102D68000020BDE8F88330B583B004460023C0F8DE
:102D78008830FEF72BFD054623681B6813F0080F03
:102D88000ED123681B6813F0040F17D12023C4F851
:102D98008030C4F88430002084F87C0003B030BD53
:102DA8006FF07E430093034600224FF40011204643
:102DB800FFF783FF0028E4D00320EFE76FF07E439E
:102DC80000932B4600224FF480012046FFF775FF41
:102DD8000028DBD00320E1E778B310B50446D0F82B
:102DE80080300BB32423C4F880302268136823F0A2
:102DF800010313602046FFF731FD012813D0A36AB1
:102E0800BBB92268536823F49043536022689368DF
:102E180023F02A0393602268136843F001031360C8
:102E28002046FFF7A0FF10BD80F87C30FEF72EF992
:102E3800D8E72046FFF7DCFEE3E7012070470000F3
:102E480084B00346184A92E8030004AA02E9030082
:102E580016496A4603C982E803005A6E32B901224C
:102E6800A3F86A20A3F8682004B0704719688A6834
:102E7800C2F34262886804A901EB507010F8081C7C
:102E8800C90010F8100C91FBF0F1A3F86A1004A91E
:102E98000A4412F8081CC90012F8102C91FBF2F22F
:102EA800A3F86820E0E700BF0037000820370008D3
:102EB80090F87C30012B18D0012380F87C30242333
:102EC800C0F8803003681A68196821F00101196098
:102ED80022F000520023436601680A602022C0F8ED
:102EE800802080F87C30184670470220704738B53B
:102EF80090F87C30012B1DD00446012380F87C30EB
:102F08002423C0F8803003681D681A6822F0010283
:102F18001A600268936823F0604319439160FFF7D1
:102F28008FFF23681D602023C4F88030002084F8B8
:102F38007C0038BD0220FCE738B590F87C30012BC6
:102F48001DD00446012380F87C302423C0F880304B
:102F580003681D681A6822F001021A600268936803
:102F680023F0606319439160FFF76AFF23681D60CF
:102F78002023C4F88030002084F87C0038BD02206B
:102F8800FCE730B4036A056A25F001050562846927
:102F980024F0F00444EA021423F00A030B4384618A
:102FA800036230BC704730B4056A25F0100505622D
:102FB8008469036A24F4704444EA023423F0A003C9
:102FC80043EA01138461036230BC7047836823F4C9
:102FD800401323F070030B4343F0070383607047EB
:102FE80090F83D30DBB2012B35D1022380F83D301B
:102FF80003681C4A934220D0B3F1804F1DD0A2F53C
:103008009432934219D002F58062934215D002F5AA
:103018008062934211D002F5943293420DD002F5AA
:103028004062934209D002F58052934205D01A6853
:1030380042F001021A600020704799680A4A0A4063
:10304800062A0AD0B2F5803F09D01A6842F0010278
:103058001A60002070470120704700207047002048
:10306800704700BF002C0140070001000368364A82
:10307800904216D0B0F1804F13D0A2F5943290420E
:103088000FD002F5806290420BD002F58062904228
:1030980007D002F59432904203D002F5E0529042F4
:1030A80003D123F070034A681343274A904222D081
:1030B800B0F1804F1FD0A2F5943290421BD002F598
:1030C8008062904217D002F58062904213D002F5D8
:1030D800943290420FD002F5406290420BD002F534
:1030E8008062904207D002F58062904203D002F5D8
:1030F8000062904203D123F44073CA68134323F05B
:1031080080034A69134303608B68C3620B68836258
:103118000D4B984213D003F5006398420FD003F586
:10312800406398420BD003F58063984207D003F5BB
:103138008063984203D003F50063984201D10B697C
:103148000363012343617047002C014060B310B54D
:10315800044690F83D3013B3022384F83D302146ED
:1031680051F8040BFFF782FF012384F8483084F8F4
:103178003E3084F83F3084F8403084F8413084F899
:10318800423084F8433084F8443084F8453084F879
:10319800463084F8473084F83D30002010BD80F870
:1031A8003C3000F03DF9D7E70120704710B484683F
:1031B80024F47F4442EA03220A43224382605DF8F2
:1031C800044B704790F83C30012B00F0838010B519
:1031D8000446012380F83C30022380F83D30026821
:1031E80090683D4B034093600B68602B5ED011D90B
:1031F800B3F5005F4ED02CD9384A934245D036D922
:10320800374A934241D0103293423ED0203A9342FB
:103218003BD013E0402B53D00BD9502B0ED1CA68AA
:1032280049682068FFF7ADFE50212068FFF7CEFE01
:1032380004E0202B29D008D9302B26D0012384F88C
:103248003D30002084F83C0010BDF3B1102B1CD099
:10325800F4E7702BF2D1CB684A6889682068FFF7D9
:10326800A5FF2268936843F077039360E6E7203A66
:1032780093420AD003D91B4A934206D0DEE7B3F53E
:10328800801F02D0B3F1101FD8D119462068FFF76C
:103298009DFED3E7CB684A6889682068FFF786FFF8
:1032A8002268936843F480439360C7E7CA68496813
:1032B8002068FFF778FE60212068FFF787FEBDE7EA
:1032C800CA6849682068FFF75CFE40212068FFF75C
:1032D8007DFEB3E7022070478800CEFF4000100053
:1032E800600010003000100090F83C30012B4CD0EA
:1032F80030B4012380F83C30022380F83D30026866
:1033080053689568224CA24207D004F50064A24293
:1033180003D004F5E054A24203D123F470034C68AF
:10332800234323F0007323F070030C682343536096
:103338000368174A93421AD0B3F1804F17D0A2F509
:103348009432934213D002F5806293420FD002F573
:10335800806293420BD002F59432934207D002F573
:103368004062934203D002F58052934204D125F083
:1033780080058A6815439D60012380F83D3000234D
:1033880080F83C30184630BC70470220704700BFB8
:10339800002C0140054BD3F8882042F47002C3F892
:1033A80088204FF000629A60704700BF00ED00E08F
:1033B80000B589B0002304930593069307930193FE
:1033C8000293039315484FF0804202604360836084
:1033D80040F28222C26003618361FFF7B7FE98B9A9
:1033E8004FF48053049304A90C48FFF7EBFE70B91F
:1033F800202301930023039301A90848FFF774FFD2
:1034080040B909B05DF804FBFDF7E0FCE8E7FDF71B
:10341800DDFCEDE7FDF7DAFCF3E700BF2C01002047
:103428000368B3F1804F00D0704782B003F50433CE
:103438009A6D42F001029A659B6D03F001030193B6
:10344800019B02B07047000000B583B00E4B9A6C28
:1034580042F004029A649A6C02F004020092009A04
:103468009A6C42F001029A649B6C03F00103019389
:10347800019B002211460B20FFF798F90B20FFF75C
:10348800C9F903B05DF804FB001002400D488546F9
:103498000D480E490E4A002302E0D458C4500433A4
:1034A800C4188C42F9D30B4A0B4C002301E013607B
:1034B8000432A242FBD3FFF76DFFFCF7CDFEFDF708
:1034C80023FCFEE700000220000000200C00002082
:1034D800543700080C00002078010020FEE70000A7
:1034E800F8B500BFF8BC08BC9E467047F8B500BFE9
:0834F800F8BC08BC9E467047B9
:103500000008000065080000CA0800002E0900003D
:1035100092090000F5090000560A0000B60A0000F2
:10352000150B0000710B0000CC0B0000240C0000F8
:10353000790C0000CB0C00001B0D0000670D000093
:10354000B00D0000F60D0000370E0000750E0000F3
:10355000AF0E0000E40E0000150F0000420F000047
:103560006A0F00008E0F0000AD0F0000C70F0000B3
:10357000DC0F0000EC0F0000F70F0000FE0F000052
:10358000FF0F0000FB0F0000F20F0000E50F00002E
:10359000D20F0000BA0F00009E0F00007D0F000048
:1035A000570F00002C0F0000FD0E0000CA0E000097
:1035B000920E0000570E0000170E0000D30D000001
:1035C0008C0D0000420D0000F40C0000A30C000064
:1035D0004F0C0000F80B00009F0B0000430B000095
:1035E000E60A0000870A0000260A0000C40900005D
:1035F00060090000FC080000970800003208000085
:10360000CD07000068070000030700009F060000C8
:103610003B060000D90500007805000019050000F0
:10362000BC0400006004000007040000B0030000B8
:103630005C0300000B030000BD02000073020000E9
:103640002C020000E8010000A80100006D0100004C
:103650003501000002010000D3000000A8000000B6
:103660008200000061000000450000002D00000005
:103670001A0000000D00000004000000000000001F
:1036800001000000080000001300000023000000FB
:10369000380000005200000071000000950000009A
:1036A000BD000000EA0000001B0100005001000006
:1036B0008A010000C8010000090200004F0200005A
:1036C00098020000E40200003403000086030000BA
:1036D000DB030000330400008E040000EA04000055
:1036E00049050000A90500000A0600006D0600005B
:1036F000D1060000350700009A070000FF07000010
:10370000010101030701000001000200040006009E
:1037100008000A000C00100020004000800000019A
:10372000080402040801010100000000000000007C
:103730000000000001020304060708090000000061
:04374000010203047B
:0837440090D2FF7F010000009C
:04374C00410200082E
:043750001902000852
:0C37540001000000100000000024F40040
:040000050800349526
:00000001FF
